{
  "abi": [
    {
      "inputs": [],
      "name": "ClosePoolFailed",
      "type": "error"
    },
    {
      "inputs": [],
      "name": "GasRefundFailed",
      "type": "error"
    },
    {
      "inputs": [],
      "name": "InvalidPool",
      "type": "error"
    },
    {
      "inputs": [],
      "name": "NoValueForPool",
      "type": "error"
    },
    {
      "inputs": [],
      "name": "NotPoolOwner",
      "type": "error"
    },
    {
      "anonymous": false,
      "inputs": [
        {
          "indexed": true,
          "internalType": "address",
          "name": "governor",
          "type": "address"
        },
        {
          "indexed": true,
          "internalType": "uint256",
          "name": "poolId",
          "type": "uint256"
        },
        {
          "indexed": true,
          "internalType": "address",
          "name": "voter",
          "type": "address"
        },
        {
          "indexed": false,
          "internalType": "uint256",
          "name": "proposalId",
          "type": "uint256"
        },
        {
          "indexed": false,
          "internalType": "uint256",
          "name": "amountRefunded",
          "type": "uint256"
        }
      ],
      "name": "GasRefunded",
      "type": "event"
    },
    {
      "anonymous": false,
      "inputs": [
        {
          "indexed": true,
          "internalType": "address",
          "name": "governor",
          "type": "address"
        },
        {
          "indexed": true,
          "internalType": "uint256",
          "name": "poolId",
          "type": "uint256"
        },
        {
          "indexed": false,
          "internalType": "uint256",
          "name": "amountAdded",
          "type": "uint256"
        }
      ],
      "name": "RefundPoolBalanceAdded",
      "type": "event"
    },
    {
      "anonymous": false,
      "inputs": [
        {
          "indexed": true,
          "internalType": "address",
          "name": "governor",
          "type": "address"
        },
        {
          "indexed": true,
          "internalType": "uint256",
          "name": "poolId",
          "type": "uint256"
        }
      ],
      "name": "RefundPoolClosed",
      "type": "event"
    },
    {
      "anonymous": false,
      "inputs": [
        {
          "indexed": true,
          "internalType": "address",
          "name": "governor",
          "type": "address"
        },
        {
          "indexed": true,
          "internalType": "uint256",
          "name": "poolId",
          "type": "uint256"
        },
        {
          "indexed": true,
          "internalType": "address",
          "name": "owner",
          "type": "address"
        },
        {
          "indexed": false,
          "internalType": "uint256",
          "name": "balance",
          "type": "uint256"
        }
      ],
      "name": "RefundPoolCreated",
      "type": "event"
    },
    {
      "inputs": [
        {
          "internalType": "address",
          "name": "_governor",
          "type": "address"
        },
        {
          "internalType": "uint256",
          "name": "_poolId",
          "type": "uint256"
        },
        {
          "internalType": "uint256",
          "name": "_proposalId",
          "type": "uint256"
        },
        {
          "internalType": "uint8",
          "name": "_support",
          "type": "uint8"
        },
        {
          "internalType": "uint8",
          "name": "_v",
          "type": "uint8"
        },
        {
          "internalType": "bytes32",
          "name": "_r",
          "type": "bytes32"
        },
        {
          "internalType": "bytes32",
          "name": "_s",
          "type": "bytes32"
        }
      ],
      "name": "castVoteBySig",
      "outputs": [
        {
          "internalType": "uint256",
          "name": "",
          "type": "uint256"
        }
      ],
      "stateMutability": "nonpayable",
      "type": "function"
    },
    {
      "inputs": [
        {
          "internalType": "address",
          "name": "_governor",
          "type": "address"
        },
        {
          "internalType": "uint256",
          "name": "_poolId",
          "type": "uint256"
        }
      ],
      "name": "closePool",
      "outputs": [],
      "stateMutability": "nonpayable",
      "type": "function"
    },
    {
      "inputs": [
        {
          "internalType": "address",
          "name": "_governor",
          "type": "address"
        },
        {
          "internalType": "uint256",
          "name": "_maxFeePerGas",
          "type": "uint256"
        },
        {
          "internalType": "uint256",
          "name": "_maxPriorityFeePerGas",
          "type": "uint256"
        }
      ],
      "name": "createPool",
      "outputs": [
        {
          "internalType": "uint256",
          "name": "",
          "type": "uint256"
        }
      ],
      "stateMutability": "payable",
      "type": "function"
    },
    {
      "inputs": [
        {
          "internalType": "address",
          "name": "_governor",
          "type": "address"
        },
        {
          "internalType": "uint256",
          "name": "_poolId",
          "type": "uint256"
        }
      ],
      "name": "fund",
      "outputs": [],
      "stateMutability": "payable",
      "type": "function"
    }
  ],
  "bytecode": {
    "object": "0x608060405234801561001057600080fd5b506107cd806100206000396000f3fe60806040526004361061003f5760003560e01c80637b1837de14610044578063b039ddf614610059578063b9fcc3d11461007e578063db1801031461009e575b600080fd5b610057610052366004610642565b6100be565b005b61006c61006736600461066c565b61011f565b60405190815260200160405180910390f35b34801561008a57600080fd5b5061006c6100993660046106b0565b61024e565b3480156100aa57600080fd5b506100576100b9366004610642565b6104f0565b6001600160a01b03808316600090815260208181526040808320858452909152902080549091166101015760405162820f3560e61b815260040160405180910390fd5b348160010160008282546101159190610730565b9091555050505050565b60003460000361014257604051631c8bd94b60e31b815260040160405180910390fd5b610176604051806080016040528060006001600160a01b031681526020016000815260200160008152602001600081525090565b338082523460208084019182526040808501888152606080870189815283518086018890528085018c90528083018b905284518082039093018352608081018086528351938701939093206001600160a01b038e81166000818152808a52888120848252909952969097208a5181546001600160a01b03191698169790971787559651600187018190559351600287015590516003909501949094555291929183917f9d3b3d152a55eac76c36a0639649102f3b3f680b28de19f768b8531035380c239060a00160405180910390a495945050505050565b6000805a604051633bccf4fd60e01b81526004810189905260ff80891660248301528716604482015260648101869052608481018590529091506000908a906001600160a01b03821690633bccf4fd9060a4016020604051808303816000875af11580156102c0573d6000803e3d6000fd5b505050506040513d601f19601f820116820180604052508101906102e49190610748565b9150600082116103465760405162461bcd60e51b8152602060048201526024808201527f766f7465722062656c6f77206d696e756d756d20766f74657320666f72207265604482015263199d5b9960e21b606482015260840160405180910390fd5b506001600160a01b038a166000908152602081815260408083208c8452909152902060028101541580159061037e575080600201543a115b1561038d575091506104e59050565b6000610399483a610761565b9050600082600301541180156103b25750816003015481115b156103c357829450505050506104e5565b505a6103cf9084610761565b925060006103df3a610f3c610778565b6103e93a86610778565b6103f39190610730565b90508082600101541015610408575060018101545b8082600101546104189190610761565b6001830155604051600090339083908381818185875af1925050503d806000811461045f576040519150601f19603f3d011682016040523d82523d6000602084013e610464565b606091505b50509050806104865760405163e2e9a73160e01b815260040160405180910390fd5b336001600160a01b03168c8e6001600160a01b03167fc7a01f0df19b455b617257984c0cac5e78645e1801db7a60cc29e27ea478e3088e866040516104d5929190918252602082015260400190565b60405180910390a4509193505050505b979650505050505050565b6001600160a01b03808316600090815260208181526040808320858452909152902080549091163314610536576040516367d056a760e11b815260040160405180910390fd5b6001818101546001600160a01b03851660009081526020818152604080832087845290915280822080546001600160a01b03191681559384018290556002840182905560039093018190559151909190339083908381818185875af1925050503d80600081146105c2576040519150601f19603f3d011682016040523d82523d6000602084013e6105c7565b606091505b50509050806105e9576040516301b890af60e71b815260040160405180910390fd5b60405184906001600160a01b038716907f8d7f1bc2716e9810a54a2d9ace48710fd091e78ae85f97e1ab20e73902c9982d90600090a35050505050565b80356001600160a01b038116811461063d57600080fd5b919050565b6000806040838503121561065557600080fd5b61065e83610626565b946020939093013593505050565b60008060006060848603121561068157600080fd5b61068a84610626565b95602085013595506040909401359392505050565b803560ff8116811461063d57600080fd5b600080600080600080600060e0888a0312156106cb57600080fd5b6106d488610626565b965060208801359550604088013594506106f06060890161069f565b93506106fe6080890161069f565b925060a0880135915060c0880135905092959891949750929550565b634e487b7160e01b600052601160045260246000fd5b600082198211156107435761074361071a565b500190565b60006020828403121561075a57600080fd5b5051919050565b6000828210156107735761077361071a565b500390565b60008160001904831182151516156107925761079261071a565b50029056fea2646970667358221220d91727736f9da29e3a221d5a7a533bc84b27e5b002561a6a0d86f4e54352f9d164736f6c634300080d0033",
    "linkReferences": {}
  },
  "methodIdentifiers": {
    "castVoteBySig(address,uint256,uint256,uint8,uint8,bytes32,bytes32)": "b9fcc3d1",
    "closePool(address,uint256)": "db180103",
    "createPool(address,uint256,uint256)": "b039ddf6",
    "fund(address,uint256)": "7b1837de"
  },
  "id": 38
}